{
  "_format": "hh-sol-artifact-1",
  "contractName": "TheSimples",
  "sourceName": "contracts/TheSimples.sol",
  "abi": [
    {
      "inputs": [
        {
          "internalType": "string",
          "name": "defaultTokenUri_",
          "type": "string"
        },
        {
          "internalType": "address",
          "name": "cryptoBatzAddress",
          "type": "address"
        }
      ],
      "stateMutability": "nonpayable",
      "type": "constructor"
    },
    {
      "anonymous": false,
      "inputs": [
        {
          "indexed": true,
          "internalType": "address",
          "name": "owner",
          "type": "address"
        },
        {
          "indexed": true,
          "internalType": "address",
          "name": "approved",
          "type": "address"
        },
        {
          "indexed": true,
          "internalType": "uint256",
          "name": "tokenId",
          "type": "uint256"
        }
      ],
      "name": "Approval",
      "type": "event"
    },
    {
      "anonymous": false,
      "inputs": [
        {
          "indexed": true,
          "internalType": "address",
          "name": "owner",
          "type": "address"
        },
        {
          "indexed": true,
          "internalType": "address",
          "name": "operator",
          "type": "address"
        },
        {
          "indexed": false,
          "internalType": "bool",
          "name": "approved",
          "type": "bool"
        }
      ],
      "name": "ApprovalForAll",
      "type": "event"
    },
    {
      "anonymous": false,
      "inputs": [
        {
          "indexed": true,
          "internalType": "contract IERC20",
          "name": "token",
          "type": "address"
        },
        {
          "indexed": false,
          "internalType": "address",
          "name": "to",
          "type": "address"
        },
        {
          "indexed": false,
          "internalType": "uint256",
          "name": "amount",
          "type": "uint256"
        }
      ],
      "name": "ERC20PaymentReleased",
      "type": "event"
    },
    {
      "anonymous": false,
      "inputs": [
        {
          "indexed": false,
          "internalType": "address",
          "name": "signer",
          "type": "address"
        }
      ],
      "name": "MintSignerUpdated",
      "type": "event"
    },
    {
      "anonymous": false,
      "inputs": [
        {
          "indexed": true,
          "internalType": "uint256",
          "name": "tokenId",
          "type": "uint256"
        },
        {
          "indexed": false,
          "internalType": "uint256",
          "name": "cryptoBatId",
          "type": "uint256"
        },
        {
          "indexed": false,
          "internalType": "address",
          "name": "victimContract",
          "type": "address"
        },
        {
          "indexed": false,
          "internalType": "uint256",
          "name": "victimId",
          "type": "uint256"
        }
      ],
      "name": "MutantBatCreated",
      "type": "event"
    },
    {
      "anonymous": false,
      "inputs": [
        {
          "indexed": true,
          "internalType": "uint256",
          "name": "tokenId",
          "type": "uint256"
        },
        {
          "indexed": false,
          "internalType": "uint256",
          "name": "cryptoBatId",
          "type": "uint256"
        },
        {
          "indexed": false,
          "internalType": "address",
          "name": "victimContract",
          "type": "address"
        },
        {
          "indexed": false,
          "internalType": "uint256",
          "name": "victimId",
          "type": "uint256"
        }
      ],
      "name": "MutantBatIncubating",
      "type": "event"
    },
    {
      "anonymous": false,
      "inputs": [
        {
          "indexed": true,
          "internalType": "address",
          "name": "previousOwner",
          "type": "address"
        },
        {
          "indexed": true,
          "internalType": "address",
          "name": "newOwner",
          "type": "address"
        }
      ],
      "name": "OwnershipTransferred",
      "type": "event"
    },
    {
      "anonymous": false,
      "inputs": [
        {
          "indexed": false,
          "internalType": "address",
          "name": "account",
          "type": "address"
        },
        {
          "indexed": false,
          "internalType": "uint256",
          "name": "shares",
          "type": "uint256"
        }
      ],
      "name": "PayeeAdded",
      "type": "event"
    },
    {
      "anonymous": false,
      "inputs": [
        {
          "indexed": false,
          "internalType": "address",
          "name": "from",
          "type": "address"
        },
        {
          "indexed": false,
          "internalType": "uint256",
          "name": "amount",
          "type": "uint256"
        }
      ],
      "name": "PaymentReceived",
      "type": "event"
    },
    {
      "anonymous": false,
      "inputs": [
        {
          "indexed": false,
          "internalType": "address",
          "name": "to",
          "type": "address"
        },
        {
          "indexed": false,
          "internalType": "uint256",
          "name": "amount",
          "type": "uint256"
        }
      ],
      "name": "PaymentReleased",
      "type": "event"
    },
    {
      "anonymous": false,
      "inputs": [
        {
          "indexed": true,
          "internalType": "uint256",
          "name": "tokenId",
          "type": "uint256"
        },
        {
          "indexed": false,
          "internalType": "string",
          "name": "newTokenUri",
          "type": "string"
        }
      ],
      "name": "TokenUriUpdated",
      "type": "event"
    },
    {
      "anonymous": false,
      "inputs": [
        {
          "indexed": true,
          "internalType": "address",
          "name": "from",
          "type": "address"
        },
        {
          "indexed": true,
          "internalType": "address",
          "name": "to",
          "type": "address"
        },
        {
          "indexed": true,
          "internalType": "uint256",
          "name": "tokenId",
          "type": "uint256"
        }
      ],
      "name": "Transfer",
      "type": "event"
    },
    {
      "inputs": [],
      "name": "ANCIENT_BATZ_BITE_LIMIT",
      "outputs": [
        {
          "internalType": "uint256",
          "name": "",
          "type": "uint256"
        }
      ],
      "stateMutability": "view",
      "type": "function"
    },
    {
      "inputs": [],
      "name": "ANCIENT_BATZ_START_ID",
      "outputs": [
        {
          "internalType": "uint256",
          "name": "",
          "type": "uint256"
        }
      ],
      "stateMutability": "view",
      "type": "function"
    },
    {
      "inputs": [],
      "name": "CryptoBatz",
      "outputs": [
        {
          "internalType": "contract IERC721",
          "name": "",
          "type": "address"
        }
      ],
      "stateMutability": "view",
      "type": "function"
    },
    {
      "inputs": [
        {
          "internalType": "address",
          "name": "to",
          "type": "address"
        },
        {
          "internalType": "uint256",
          "name": "tokenId",
          "type": "uint256"
        }
      ],
      "name": "approve",
      "outputs": [],
      "stateMutability": "nonpayable",
      "type": "function"
    },
    {
      "inputs": [
        {
          "internalType": "address",
          "name": "owner",
          "type": "address"
        }
      ],
      "name": "balanceOf",
      "outputs": [
        {
          "internalType": "uint256",
          "name": "",
          "type": "uint256"
        }
      ],
      "stateMutability": "view",
      "type": "function"
    },
    {
      "inputs": [
        {
          "internalType": "uint256",
          "name": "batId",
          "type": "uint256"
        },
        {
          "internalType": "address",
          "name": "victimContract",
          "type": "address"
        },
        {
          "internalType": "uint256",
          "name": "victimId",
          "type": "uint256"
        },
        {
          "internalType": "string",
          "name": "newTokenURI",
          "type": "string"
        },
        {
          "internalType": "bytes",
          "name": "signature",
          "type": "bytes"
        }
      ],
      "name": "bite",
      "outputs": [],
      "stateMutability": "nonpayable",
      "type": "function"
    },
    {
      "inputs": [
        {
          "internalType": "uint256[]",
          "name": "tokenIds",
          "type": "uint256[]"
        }
      ],
      "name": "canBatsBite",
      "outputs": [
        {
          "internalType": "bool[]",
          "name": "",
          "type": "bool[]"
        }
      ],
      "stateMutability": "view",
      "type": "function"
    },
    {
      "inputs": [
        {
          "internalType": "address",
          "name": "victimContract",
          "type": "address"
        },
        {
          "internalType": "uint256[]",
          "name": "tokenIds",
          "type": "uint256[]"
        }
      ],
      "name": "canVictimBeBitten",
      "outputs": [
        {
          "internalType": "bool[]",
          "name": "",
          "type": "bool[]"
        }
      ],
      "stateMutability": "view",
      "type": "function"
    },
    {
      "inputs": [],
      "name": "defaultTokenURI",
      "outputs": [
        {
          "internalType": "string",
          "name": "",
          "type": "string"
        }
      ],
      "stateMutability": "view",
      "type": "function"
    },
    {
      "inputs": [
        {
          "internalType": "address",
          "name": "contractAddress",
          "type": "address"
        }
      ],
      "name": "disableVictim",
      "outputs": [],
      "stateMutability": "nonpayable",
      "type": "function"
    },
    {
      "inputs": [
        {
          "internalType": "address",
          "name": "contractAddress",
          "type": "address"
        }
      ],
      "name": "enableVictim",
      "outputs": [],
      "stateMutability": "nonpayable",
      "type": "function"
    },
    {
      "inputs": [
        {
          "internalType": "uint256",
          "name": "tokenId",
          "type": "uint256"
        }
      ],
      "name": "getApproved",
      "outputs": [
        {
          "internalType": "address",
          "name": "",
          "type": "address"
        }
      ],
      "stateMutability": "view",
      "type": "function"
    },
    {
      "inputs": [
        {
          "internalType": "address",
          "name": "owner",
          "type": "address"
        },
        {
          "internalType": "address",
          "name": "operator",
          "type": "address"
        }
      ],
      "name": "isApprovedForAll",
      "outputs": [
        {
          "internalType": "bool",
          "name": "",
          "type": "bool"
        }
      ],
      "stateMutability": "view",
      "type": "function"
    },
    {
      "inputs": [
        {
          "internalType": "uint256",
          "name": "tokenId",
          "type": "uint256"
        }
      ],
      "name": "isTokenMetadataLocked",
      "outputs": [
        {
          "internalType": "bool",
          "name": "",
          "type": "bool"
        }
      ],
      "stateMutability": "view",
      "type": "function"
    },
    {
      "inputs": [
        {
          "internalType": "uint256",
          "name": "tokenId",
          "type": "uint256"
        }
      ],
      "name": "lockTokenMetadataTo",
      "outputs": [],
      "stateMutability": "nonpayable",
      "type": "function"
    },
    {
      "inputs": [],
      "name": "mintSigner",
      "outputs": [
        {
          "internalType": "address",
          "name": "",
          "type": "address"
        }
      ],
      "stateMutability": "view",
      "type": "function"
    },
    {
      "inputs": [],
      "name": "name",
      "outputs": [
        {
          "internalType": "string",
          "name": "",
          "type": "string"
        }
      ],
      "stateMutability": "view",
      "type": "function"
    },
    {
      "inputs": [],
      "name": "owner",
      "outputs": [
        {
          "internalType": "address",
          "name": "",
          "type": "address"
        }
      ],
      "stateMutability": "view",
      "type": "function"
    },
    {
      "inputs": [
        {
          "internalType": "uint256",
          "name": "tokenId",
          "type": "uint256"
        }
      ],
      "name": "ownerOf",
      "outputs": [
        {
          "internalType": "address",
          "name": "",
          "type": "address"
        }
      ],
      "stateMutability": "view",
      "type": "function"
    },
    {
      "inputs": [
        {
          "internalType": "uint256",
          "name": "index",
          "type": "uint256"
        }
      ],
      "name": "payee",
      "outputs": [
        {
          "internalType": "address",
          "name": "",
          "type": "address"
        }
      ],
      "stateMutability": "view",
      "type": "function"
    },
    {
      "inputs": [
        {
          "internalType": "address payable",
          "name": "account",
          "type": "address"
        }
      ],
      "name": "release",
      "outputs": [],
      "stateMutability": "nonpayable",
      "type": "function"
    },
    {
      "inputs": [
        {
          "internalType": "contract IERC20",
          "name": "token",
          "type": "address"
        },
        {
          "internalType": "address",
          "name": "account",
          "type": "address"
        }
      ],
      "name": "release",
      "outputs": [],
      "stateMutability": "nonpayable",
      "type": "function"
    },
    {
      "inputs": [
        {
          "internalType": "contract IERC20",
          "name": "token",
          "type": "address"
        },
        {
          "internalType": "address",
          "name": "account",
          "type": "address"
        }
      ],
      "name": "released",
      "outputs": [
        {
          "internalType": "uint256",
          "name": "",
          "type": "uint256"
        }
      ],
      "stateMutability": "view",
      "type": "function"
    },
    {
      "inputs": [
        {
          "internalType": "address",
          "name": "account",
          "type": "address"
        }
      ],
      "name": "released",
      "outputs": [
        {
          "internalType": "uint256",
          "name": "",
          "type": "uint256"
        }
      ],
      "stateMutability": "view",
      "type": "function"
    },
    {
      "inputs": [],
      "name": "renounceOwnership",
      "outputs": [],
      "stateMutability": "nonpayable",
      "type": "function"
    },
    {
      "inputs": [
        {
          "internalType": "uint256",
          "name": "",
          "type": "uint256"
        },
        {
          "internalType": "uint256",
          "name": "value",
          "type": "uint256"
        }
      ],
      "name": "royaltyInfo",
      "outputs": [
        {
          "internalType": "address",
          "name": "receiver",
          "type": "address"
        },
        {
          "internalType": "uint256",
          "name": "royaltyAmount",
          "type": "uint256"
        }
      ],
      "stateMutability": "view",
      "type": "function"
    },
    {
      "inputs": [
        {
          "internalType": "address",
          "name": "from",
          "type": "address"
        },
        {
          "internalType": "address",
          "name": "to",
          "type": "address"
        },
        {
          "internalType": "uint256",
          "name": "tokenId",
          "type": "uint256"
        }
      ],
      "name": "safeTransferFrom",
      "outputs": [],
      "stateMutability": "nonpayable",
      "type": "function"
    },
    {
      "inputs": [
        {
          "internalType": "address",
          "name": "from",
          "type": "address"
        },
        {
          "internalType": "address",
          "name": "to",
          "type": "address"
        },
        {
          "internalType": "uint256",
          "name": "tokenId",
          "type": "uint256"
        },
        {
          "internalType": "bytes",
          "name": "_data",
          "type": "bytes"
        }
      ],
      "name": "safeTransferFrom",
      "outputs": [],
      "stateMutability": "nonpayable",
      "type": "function"
    },
    {
      "inputs": [
        {
          "internalType": "address",
          "name": "operator",
          "type": "address"
        },
        {
          "internalType": "bool",
          "name": "approved",
          "type": "bool"
        }
      ],
      "name": "setApprovalForAll",
      "outputs": [],
      "stateMutability": "nonpayable",
      "type": "function"
    },
    {
      "inputs": [
        {
          "internalType": "string",
          "name": "newTokenURI",
          "type": "string"
        }
      ],
      "name": "setDefaultTokenURI",
      "outputs": [],
      "stateMutability": "nonpayable",
      "type": "function"
    },
    {
      "inputs": [
        {
          "internalType": "address",
          "name": "newMintSigner",
          "type": "address"
        }
      ],
      "name": "setMintSigner",
      "outputs": [],
      "stateMutability": "nonpayable",
      "type": "function"
    },
    {
      "inputs": [
        {
          "internalType": "address",
          "name": "account",
          "type": "address"
        }
      ],
      "name": "shares",
      "outputs": [
        {
          "internalType": "uint256",
          "name": "",
          "type": "uint256"
        }
      ],
      "stateMutability": "view",
      "type": "function"
    },
    {
      "inputs": [
        {
          "internalType": "bytes4",
          "name": "interfaceId",
          "type": "bytes4"
        }
      ],
      "name": "supportsInterface",
      "outputs": [
        {
          "internalType": "bool",
          "name": "",
          "type": "bool"
        }
      ],
      "stateMutability": "view",
      "type": "function"
    },
    {
      "inputs": [],
      "name": "symbol",
      "outputs": [
        {
          "internalType": "string",
          "name": "",
          "type": "string"
        }
      ],
      "stateMutability": "view",
      "type": "function"
    },
    {
      "inputs": [
        {
          "internalType": "uint256",
          "name": "tokenId",
          "type": "uint256"
        }
      ],
      "name": "tokenURI",
      "outputs": [
        {
          "internalType": "string",
          "name": "",
          "type": "string"
        }
      ],
      "stateMutability": "view",
      "type": "function"
    },
    {
      "inputs": [
        {
          "internalType": "contract IERC20",
          "name": "token",
          "type": "address"
        }
      ],
      "name": "totalReleased",
      "outputs": [
        {
          "internalType": "uint256",
          "name": "",
          "type": "uint256"
        }
      ],
      "stateMutability": "view",
      "type": "function"
    },
    {
      "inputs": [],
      "name": "totalReleased",
      "outputs": [
        {
          "internalType": "uint256",
          "name": "",
          "type": "uint256"
        }
      ],
      "stateMutability": "view",
      "type": "function"
    },
    {
      "inputs": [],
      "name": "totalShares",
      "outputs": [
        {
          "internalType": "uint256",
          "name": "",
          "type": "uint256"
        }
      ],
      "stateMutability": "view",
      "type": "function"
    },
    {
      "inputs": [],
      "name": "totalSupply",
      "outputs": [
        {
          "internalType": "uint256",
          "name": "",
          "type": "uint256"
        }
      ],
      "stateMutability": "view",
      "type": "function"
    },
    {
      "inputs": [
        {
          "internalType": "address",
          "name": "from",
          "type": "address"
        },
        {
          "internalType": "address",
          "name": "to",
          "type": "address"
        },
        {
          "internalType": "uint256",
          "name": "tokenId",
          "type": "uint256"
        }
      ],
      "name": "transferFrom",
      "outputs": [],
      "stateMutability": "nonpayable",
      "type": "function"
    },
    {
      "inputs": [
        {
          "internalType": "address",
          "name": "newOwner",
          "type": "address"
        }
      ],
      "name": "transferOwnership",
      "outputs": [],
      "stateMutability": "nonpayable",
      "type": "function"
    },
    {
      "inputs": [
        {
          "internalType": "uint256",
          "name": "tokenId",
          "type": "uint256"
        },
        {
          "internalType": "string",
          "name": "newTokenURI",
          "type": "string"
        }
      ],
      "name": "updateTokenURI",
      "outputs": [],
      "stateMutability": "nonpayable",
      "type": "function"
    },
    {
      "inputs": [],
      "name": "withdrawAll",
      "outputs": [],
      "stateMutability": "nonpayable",
      "type": "function"
    },
    {
      "stateMutability": "payable",
      "type": "receive"
    }
  ],
  "bytecode": "0x60806040526009805461ffff191690556000600e819055600f553480156200002657600080fd5b5060405162002bfb38038062002bfb83398101604081905262000049916200027c565b604080518082018252601081526f5468652053696d706c6573203131313160801b60208083019182528351808501909452600384526254533160e81b9084015281519192916200009c91600091620001c0565b508051620000b2906001906020840190620001c0565b505050620000cf620000c9620000f260201b60201c565b620000f6565b6001600755620000df8462000148565b60109290925560115560125550620003b1565b3390565b600680546001600160a01b038381166001600160a01b0319831681179093556040519116919082907f8be0079c531659141344cd1fd0a4f28419497f9722a3daafe3b4186f6b6457e090600090a35050565b6006546001600160a01b03163314620001a75760405162461bcd60e51b815260206004820181905260248201527f4f776e61626c653a2063616c6c6572206973206e6f7420746865206f776e6572604482015260640160405180910390fd5b8051620001bc906013906020840190620001c0565b5050565b828054620001ce9062000374565b90600052602060002090601f016020900481019282620001f257600085556200023d565b82601f106200020d57805160ff19168380011785556200023d565b828001600101855582156200023d579182015b828111156200023d57825182559160200191906001019062000220565b506200024b9291506200024f565b5090565b5b808211156200024b576000815560010162000250565b634e487b7160e01b600052604160045260246000fd5b600080600080608085870312156200029357600080fd5b84516001600160401b0380821115620002ab57600080fd5b818701915087601f830112620002c057600080fd5b815181811115620002d557620002d562000266565b604051601f8201601f19908116603f0116810190838211818310171562000300576200030062000266565b81604052828152602093508a848487010111156200031d57600080fd5b600091505b8282101562000341578482018401518183018501529083019062000322565b82821115620003535760008484830101525b9289015160408a01516060909a0151939b909a509297509195505050505050565b600181811c908216806200038957607f821691505b60208210811415620003ab57634e487b7160e01b600052602260045260246000fd5b50919050565b61283a80620003c16000396000f3fe6080604052600436106102465760003560e01c806395d89b4111610139578063c7b0dcbc116100b6578063e8dd50ec1161007a578063e8dd50ec146104d9578063e985e9c514610616578063ed4dcde61461065f578063efdc778814610674578063f2fde38b14610694578063f5aa406d146106b457600080fd5b8063c7b0dcbc146105a1578063c8792ba1146105b6578063c87b56dd146105d6578063ca406bee146105f6578063cb64e534146105a157600080fd5b8063a8ecd807116100fd578063a8ecd8071461052d578063b7dce7f414610543578063b88d4fde14610559578063c017f12b14610579578063c24fe91c1461058c57600080fd5b806395d89b41146104a8578063a035b1fe146104bd578063a0914a36146104d9578063a22cb465146104ee578063a3330d251461050e57600080fd5b806332cb6b0c116101c757806360d938dc1161018b57806360d938dc1461041b5780636352211e1461043557806370a0823114610455578063715018a6146104755780638da5cb5b1461048a57600080fd5b806332cb6b0c146103a7578063372f657c146103bd5780634047638d146103d057806342842e0e146103e55780634331534f1461040557600080fd5b806318160ddd1161020e57806318160ddd1461031c57806323b872dd1461033f57806324600fc31461035f5780632db115441461037457806330176e131461038757600080fd5b806301ffc9a71461024b57806306fdde0314610280578063081812fc146102a257806308bdba66146102da578063095ea7b3146102fc575b600080fd5b34801561025757600080fd5b5061026b610266366004612083565b6106d4565b60405190151581526020015b60405180910390f35b34801561028c57600080fd5b50610295610726565b60405161027791906120f8565b3480156102ae57600080fd5b506102c26102bd36600461210b565b6107b8565b6040516001600160a01b039091168152602001610277565b3480156102e657600080fd5b506102fa6102f5366004612170565b610852565b005b34801561030857600080fd5b506102fa6103173660046121ce565b610a0e565b34801561032857600080fd5b50610331610b24565b604051908152602001610277565b34801561034b57600080fd5b506102fa61035a3660046121f8565b610b34565b34801561036b57600080fd5b506102fa610b65565b6102fa61038236600461210b565b610cbb565b34801561039357600080fd5b506102fa6103a23660046122c0565b610e39565b3480156103b357600080fd5b5061033161045781565b6102fa6103cb366004612170565b610e7a565b3480156103dc57600080fd5b506102fa611053565b3480156103f157600080fd5b506102fa6104003660046121f8565b61109a565b34801561041157600080fd5b5061033161042081565b34801561042757600080fd5b5060095461026b9060ff1681565b34801561044157600080fd5b506102c261045036600461210b565b6110b5565b34801561046157600080fd5b50610331610470366004612309565b61112c565b34801561048157600080fd5b506102fa6111b3565b34801561049657600080fd5b506006546001600160a01b03166102c2565b3480156104b457600080fd5b506102956111e9565b3480156104c957600080fd5b50610331670186cc6acd4b000081565b3480156104e557600080fd5b50610331600181565b3480156104fa57600080fd5b506102fa610509366004612324565b6111f8565b34801561051a57600080fd5b5060095461026b90610100900460ff1681565b34801561053957600080fd5b50610331600e5481565b34801561054f57600080fd5b50610331600f5481565b34801561056557600080fd5b506102fa610574366004612360565b611203565b6102fa6105873660046123dc565b61123b565b34801561059857600080fd5b50610331603781565b3480156105ad57600080fd5b50610331600281565b3480156105c257600080fd5b506102fa6105d136600461210b565b611431565b3480156105e257600080fd5b506102956105f136600461210b565b611460565b34801561060257600080fd5b506102fa61061136600461210b565b61153b565b34801561062257600080fd5b5061026b610631366004612428565b6001600160a01b03918216600090815260056020908152604080832093909416825291909152205460ff1690565b34801561066b57600080fd5b506102fa61156a565b34801561068057600080fd5b506102fa61068f36600461210b565b6115a8565b3480156106a057600080fd5b506102fa6106af366004612309565b61166c565b3480156106c057600080fd5b506102fa6106cf36600461210b565b611707565b60006001600160e01b031982166380ac58cd60e01b148061070557506001600160e01b03198216635b5e139f60e01b145b8061072057506301ffc9a760e01b6001600160e01b03198316145b92915050565b6060600080546107359061245b565b80601f01602080910402602001604051908101604052809291908181526020018280546107619061245b565b80156107ae5780601f10610783576101008083540402835291602001916107ae565b820191906000526020600020905b81548152906001019060200180831161079157829003601f168201915b5050505050905090565b6000818152600260205260408120546001600160a01b03166108365760405162461bcd60e51b815260206004820152602c60248201527f4552433732313a20617070726f76656420717565727920666f72206e6f6e657860448201526b34b9ba32b73a103a37b5b2b760a11b60648201526084015b60405180910390fd5b506000908152600460205260409020546001600160a01b031690565b60095460ff16806108755760405162461bcd60e51b815260040161082d90612496565b60105483836108e8828280806020026020016040519081016040528093929190818152602001838360200280828437600092019190915250506040516001600160601b03193360601b16602082015287925060340190505b60405160208183030381529060405280519060200120611736565b6109045760405162461bcd60e51b815260040161082d906124be565b336000908152600a6020819052604090912054600190819081906109299082906124fb565b11156109475760405162461bcd60e51b815260040161082d90612513565b600161042081600f5461095a91906124fb565b11156109785760405162461bcd60e51b815260040161082d9061253f565b3233146109975760405162461bcd60e51b815260040161082d90612561565b600260075414156109ba5760405162461bcd60e51b815260040161082d90612598565b6002600755336000908152600a602052604081208054916109da836125cf565b9091555050600f80549060006109ef836125cf565b91905055506109fd3361174c565b505060016007555050505050505050565b6000610a19826110b5565b9050806001600160a01b0316836001600160a01b03161415610a875760405162461bcd60e51b815260206004820152602160248201527f4552433732313a20617070726f76616c20746f2063757272656e74206f776e656044820152603960f91b606482015260840161082d565b336001600160a01b0382161480610aa35750610aa38133610631565b610b155760405162461bcd60e51b815260206004820152603860248201527f4552433732313a20617070726f76652063616c6c6572206973206e6f74206f7760448201527f6e6572206e6f7220617070726f76656420666f7220616c6c0000000000000000606482015260840161082d565b610b1f8383611771565b505050565b6000610b2f60085490565b905090565b610b3e33826117df565b610b5a5760405162461bcd60e51b815260040161082d906125ea565b610b1f8383836118d6565b6006546001600160a01b03163314610b8f5760405162461bcd60e51b815260040161082d9061263b565b60026007541415610bb25760405162461bcd60e51b815260040161082d90612598565b60026007554760006103e8610bc883603a612670565b610bd291906126a5565b90506000610be082846126b9565b604051909150736f957b0f6bee061ac1aa66248e70f94389cf99089083156108fc029084906000818181858888f19350505050610c575760405162461bcd60e51b81526020600482015260156024820152741cdc1b1a5d081d1c985b9cd9995c8819985a5b1959605a1b604482015260640161082d565b604051339082156108fc029083906000818181858888f19350505050610cb15760405162461bcd60e51b815260206004820152600f60248201526e1d1c985b9cd9995c8819985a5b1959608a1b604482015260640161082d565b5050600160075550565b600954610100900460ff1680610ce35760405162461bcd60e51b815260040161082d90612496565b336000908152600d602081905260409091205483906002908190610d089084906124fb565b1115610d265760405162461bcd60e51b815260040161082d90612513565b84610d3981670186cc6acd4b0000612670565b341015610d585760405162461bcd60e51b815260040161082d906126d0565b8561042081600f54610d6a91906124fb565b1115610d885760405162461bcd60e51b815260040161082d9061253f565b323314610da75760405162461bcd60e51b815260040161082d90612561565b60026007541415610dca5760405162461bcd60e51b815260040161082d90612598565b600260075560005b87811015610e2a57336000908152600d60205260408120805491610df5836125cf565b9091555050600f8054906000610e0a836125cf565b9190505550610e183361174c565b80610e22816125cf565b915050610dd2565b50506001600755505050505050565b6006546001600160a01b03163314610e635760405162461bcd60e51b815260040161082d9061263b565b8051610e76906013906020840190611fd4565b5050565b60095460ff1680610e9d5760405162461bcd60e51b815260040161082d90612496565b6012548383610ef9828280806020026020016040519081016040528093929190818152602001838360200280828437600092019190915250506040516001600160601b03193360601b16602082015287925060340190506108cd565b610f155760405162461bcd60e51b815260040161082d906124be565b336000908152600c602081905260409091205460019081908190610f3a9082906124fb565b1115610f585760405162461bcd60e51b815260040161082d90612513565b6001610f6c81670186cc6acd4b0000612670565b341015610f8b5760405162461bcd60e51b815260040161082d906126d0565b600161042081600f54610f9e91906124fb565b1115610fbc5760405162461bcd60e51b815260040161082d9061253f565b323314610fdb5760405162461bcd60e51b815260040161082d90612561565b60026007541415610ffe5760405162461bcd60e51b815260040161082d90612598565b6002600755336000908152600c6020526040812080549161101e836125cf565b9091555050600f8054906000611033836125cf565b91905055506110413361174c565b50506001600755505050505050505050565b6006546001600160a01b0316331461107d5760405162461bcd60e51b815260040161082d9061263b565b6009805461ff001981166101009182900460ff1615909102179055565b610b1f83838360405180602001604052806000815250611203565b6000818152600260205260408120546001600160a01b0316806107205760405162461bcd60e51b815260206004820152602960248201527f4552433732313a206f776e657220717565727920666f72206e6f6e657869737460448201526832b73a103a37b5b2b760b91b606482015260840161082d565b60006001600160a01b0382166111975760405162461bcd60e51b815260206004820152602a60248201527f4552433732313a2062616c616e636520717565727920666f7220746865207a65604482015269726f206164647265737360b01b606482015260840161082d565b506001600160a01b031660009081526003602052604090205490565b6006546001600160a01b031633146111dd5760405162461bcd60e51b815260040161082d9061263b565b6111e76000611a72565b565b6060600180546107359061245b565b610e76338383611ac4565b61120d33836117df565b6112295760405162461bcd60e51b815260040161082d906125ea565b61123584848484611b93565b50505050565b60095460ff168061125e5760405162461bcd60e51b815260040161082d90612496565b60115484846112ba828280806020026020016040519081016040528093929190818152602001838360200280828437600092019190915250506040516001600160601b03193360601b16602082015287925060340190506108cd565b6112d65760405162461bcd60e51b815260040161082d906124be565b336000908152600b6020819052604090912054869060029081906112fb9084906124fb565b11156113195760405162461bcd60e51b815260040161082d90612513565b8761132c81670186cc6acd4b0000612670565b34101561134b5760405162461bcd60e51b815260040161082d906126d0565b8861042081600f5461135d91906124fb565b111561137b5760405162461bcd60e51b815260040161082d9061253f565b32331461139a5760405162461bcd60e51b815260040161082d90612561565b600260075414156113bd5760405162461bcd60e51b815260040161082d90612598565b600260075560005b8a81101561141d57336000908152600b602052604081208054916113e8836125cf565b9091555050600f80549060006113fd836125cf565b919050555061140b3361174c565b80611415816125cf565b9150506113c5565b505060016007555050505050505050505050565b6006546001600160a01b0316331461145b5760405162461bcd60e51b815260040161082d9061263b565b601155565b6000818152600260205260409020546060906001600160a01b03166114df5760405162461bcd60e51b815260206004820152602f60248201527f4552433732314d657461646174613a2055524920717565727920666f72206e6f60448201526e3732bc34b9ba32b73a103a37b5b2b760891b606482015260840161082d565b60006114e9611bc6565b905060008151116115095760405180602001604052806000815250611534565b8061151384611bd5565b6040516020016115249291906126ff565b6040516020818303038152906040525b9392505050565b6006546001600160a01b031633146115655760405162461bcd60e51b815260040161082d9061263b565b601055565b6006546001600160a01b031633146115945760405162461bcd60e51b815260040161082d9061263b565b6009805460ff19811660ff90911615179055565b6006546001600160a01b031633146115d25760405162461bcd60e51b815260040161082d9061263b565b603781600e546115e291906124fb565b111561161d5760405162461bcd60e51b815260206004820152600a602482015269135a5b9d1959081bdd5d60b21b604482015260640161082d565b60005b81811015610e7657600e8054906000611638836125cf565b919050555061165a73e3e4775d8b220f1046b3070ab5ed09135f0e3f8f61174c565b80611664816125cf565b915050611620565b6006546001600160a01b031633146116965760405162461bcd60e51b815260040161082d9061263b565b6001600160a01b0381166116fb5760405162461bcd60e51b815260206004820152602660248201527f4f776e61626c653a206e6577206f776e657220697320746865207a65726f206160448201526564647265737360d01b606482015260840161082d565b61170481611a72565b50565b6006546001600160a01b031633146117315760405162461bcd60e51b815260040161082d9061263b565b601255565b6000826117438584611cd3565b14949350505050565b61175a600880546001019055565b600061176560085490565b9050610e768282611d47565b600081815260046020526040902080546001600160a01b0319166001600160a01b03841690811790915581906117a6826110b5565b6001600160a01b03167f8c5be1e5ebec7d5bd14f71427d1e84f3dd0314c0f7b2291e5b200ac8c7c3b92560405160405180910390a45050565b6000818152600260205260408120546001600160a01b03166118585760405162461bcd60e51b815260206004820152602c60248201527f4552433732313a206f70657261746f7220717565727920666f72206e6f6e657860448201526b34b9ba32b73a103a37b5b2b760a11b606482015260840161082d565b6000611863836110b5565b9050806001600160a01b0316846001600160a01b0316148061189e5750836001600160a01b0316611893846107b8565b6001600160a01b0316145b806118ce57506001600160a01b0380821660009081526005602090815260408083209388168352929052205460ff165b949350505050565b826001600160a01b03166118e9826110b5565b6001600160a01b03161461194d5760405162461bcd60e51b815260206004820152602560248201527f4552433732313a207472616e736665722066726f6d20696e636f72726563742060448201526437bbb732b960d91b606482015260840161082d565b6001600160a01b0382166119af5760405162461bcd60e51b8152602060048201526024808201527f4552433732313a207472616e7366657220746f20746865207a65726f206164646044820152637265737360e01b606482015260840161082d565b6119ba600082611771565b6001600160a01b03831660009081526003602052604081208054600192906119e39084906126b9565b90915550506001600160a01b0382166000908152600360205260408120805460019290611a119084906124fb565b909155505060008181526002602052604080822080546001600160a01b0319166001600160a01b0386811691821790925591518493918716917fddf252ad1be2c89b69c2b068fc378daa952ba7f163c4a11628f55a4df523b3ef91a4505050565b600680546001600160a01b038381166001600160a01b0319831681179093556040519116919082907f8be0079c531659141344cd1fd0a4f28419497f9722a3daafe3b4186f6b6457e090600090a35050565b816001600160a01b0316836001600160a01b03161415611b265760405162461bcd60e51b815260206004820152601960248201527f4552433732313a20617070726f766520746f2063616c6c657200000000000000604482015260640161082d565b6001600160a01b03838116600081815260056020908152604080832094871680845294825291829020805460ff191686151590811790915591519182527f17307eab39ab6107e8899845ad3d59bd9653f200f220920489ca2b5937696c31910160405180910390a3505050565b611b9e8484846118d6565b611baa84848484611d61565b6112355760405162461bcd60e51b815260040161082d9061272e565b6060601380546107359061245b565b606081611bf95750506040805180820190915260018152600360fc1b602082015290565b8160005b8115611c235780611c0d816125cf565b9150611c1c9050600a836126a5565b9150611bfd565b60008167ffffffffffffffff811115611c3e57611c3e612234565b6040519080825280601f01601f191660200182016040528015611c68576020820181803683370190505b5090505b84156118ce57611c7d6001836126b9565b9150611c8a600a86612780565b611c959060306124fb565b60f81b818381518110611caa57611caa612794565b60200101906001600160f81b031916908160001a905350611ccc600a866126a5565b9450611c6c565b600081815b8451811015611d3f576000858281518110611cf557611cf5612794565b60200260200101519050808311611d1b5760008381526020829052604090209250611d2c565b600081815260208490526040902092505b5080611d37816125cf565b915050611cd8565b509392505050565b610e76828260405180602001604052806000815250611e5f565b60006001600160a01b0384163b15611e5457604051630a85bd0160e11b81526001600160a01b0385169063150b7a0290611da59033908990889088906004016127aa565b6020604051808303816000875af1925050508015611de0575060408051601f3d908101601f19168201909252611ddd918101906127e7565b60015b611e3a573d808015611e0e576040519150601f19603f3d011682016040523d82523d6000602084013e611e13565b606091505b508051611e325760405162461bcd60e51b815260040161082d9061272e565b805181602001fd5b6001600160e01b031916630a85bd0160e11b1490506118ce565b506001949350505050565b611e698383611e92565b611e766000848484611d61565b610b1f5760405162461bcd60e51b815260040161082d9061272e565b6001600160a01b038216611ee85760405162461bcd60e51b815260206004820181905260248201527f4552433732313a206d696e7420746f20746865207a65726f2061646472657373604482015260640161082d565b6000818152600260205260409020546001600160a01b031615611f4d5760405162461bcd60e51b815260206004820152601c60248201527f4552433732313a20746f6b656e20616c7265616479206d696e74656400000000604482015260640161082d565b6001600160a01b0382166000908152600360205260408120805460019290611f769084906124fb565b909155505060008181526002602052604080822080546001600160a01b0319166001600160a01b03861690811790915590518392907fddf252ad1be2c89b69c2b068fc378daa952ba7f163c4a11628f55a4df523b3ef908290a45050565b828054611fe09061245b565b90600052602060002090601f0160209004810192826120025760008555612048565b82601f1061201b57805160ff1916838001178555612048565b82800160010185558215612048579182015b8281111561204857825182559160200191906001019061202d565b50612054929150612058565b5090565b5b808211156120545760008155600101612059565b6001600160e01b03198116811461170457600080fd5b60006020828403121561209557600080fd5b81356115348161206d565b60005b838110156120bb5781810151838201526020016120a3565b838111156112355750506000910152565b600081518084526120e48160208601602086016120a0565b601f01601f19169290920160200192915050565b60208152600061153460208301846120cc565b60006020828403121561211d57600080fd5b5035919050565b60008083601f84011261213657600080fd5b50813567ffffffffffffffff81111561214e57600080fd5b6020830191508360208260051b850101111561216957600080fd5b9250929050565b6000806020838503121561218357600080fd5b823567ffffffffffffffff81111561219a57600080fd5b6121a685828601612124565b90969095509350505050565b80356001600160a01b03811681146121c957600080fd5b919050565b600080604083850312156121e157600080fd5b6121ea836121b2565b946020939093013593505050565b60008060006060848603121561220d57600080fd5b612216846121b2565b9250612224602085016121b2565b9150604084013590509250925092565b634e487b7160e01b600052604160045260246000fd5b600067ffffffffffffffff8084111561226557612265612234565b604051601f8501601f19908116603f0116810190828211818310171561228d5761228d612234565b816040528093508581528686860111156122a657600080fd5b858560208301376000602087830101525050509392505050565b6000602082840312156122d257600080fd5b813567ffffffffffffffff8111156122e957600080fd5b8201601f810184136122fa57600080fd5b6118ce8482356020840161224a565b60006020828403121561231b57600080fd5b611534826121b2565b6000806040838503121561233757600080fd5b612340836121b2565b91506020830135801515811461235557600080fd5b809150509250929050565b6000806000806080858703121561237657600080fd5b61237f856121b2565b935061238d602086016121b2565b925060408501359150606085013567ffffffffffffffff8111156123b057600080fd5b8501601f810187136123c157600080fd5b6123d08782356020840161224a565b91505092959194509250565b6000806000604084860312156123f157600080fd5b833567ffffffffffffffff81111561240857600080fd5b61241486828701612124565b909790965060209590950135949350505050565b6000806040838503121561243b57600080fd5b612444836121b2565b9150612452602084016121b2565b90509250929050565b600181811c9082168061246f57607f821691505b6020821081141561249057634e487b7160e01b600052602260045260246000fd5b50919050565b6020808252600e908201526d537461676520696e61637469766560901b604082015260600190565b6020808252600d908201526c24b73b30b634b210383937b7b360991b604082015260600190565b634e487b7160e01b600052601160045260246000fd5b6000821982111561250e5761250e6124e5565b500190565b60208082526012908201527113585e081b5a5b9d1cc8195e18d95959195960721b604082015260600190565b60208082526008908201526714dbdb19081bdd5d60c21b604082015260600190565b6020808252601e908201527f5468652063616c6c657220697320616e6f7468657220636f6e74726163740000604082015260600190565b6020808252601f908201527f5265656e7472616e637947756172643a207265656e7472616e742063616c6c00604082015260600190565b60006000198214156125e3576125e36124e5565b5060010190565b60208082526031908201527f4552433732313a207472616e736665722063616c6c6572206973206e6f74206f6040820152701ddb995c881b9bdc88185c1c1c9bdd9959607a1b606082015260800190565b6020808252818101527f4f776e61626c653a2063616c6c6572206973206e6f7420746865206f776e6572604082015260600190565b600081600019048311821515161561268a5761268a6124e5565b500290565b634e487b7160e01b600052601260045260246000fd5b6000826126b4576126b461268f565b500490565b6000828210156126cb576126cb6124e5565b500390565b602080825260159082015274139bdd08195b9bdd59da08195d1a195c881cd95b9d605a1b604082015260600190565b600083516127118184602088016120a0565b8351908301906127258183602088016120a0565b01949350505050565b60208082526032908201527f4552433732313a207472616e7366657220746f206e6f6e20455243373231526560408201527131b2b4bb32b91034b6b83632b6b2b73a32b960711b606082015260800190565b60008261278f5761278f61268f565b500690565b634e487b7160e01b600052603260045260246000fd5b6001600160a01b03858116825284166020820152604081018390526080606082018190526000906127dd908301846120cc565b9695505050505050565b6000602082840312156127f957600080fd5b81516115348161206d56fea2646970667358221220bf35523fb5c628a3e01a7d585f1659e87d275e320ea6aaa6596e86fc0edca02564736f6c634300080a0033",
  "linkReferences": {},
  "deployedLinkReferences": {}
}